{
  "_format": "hh-sol-artifact-1",
  "contractName": "Languages",
  "sourceName": "contracts/Languages.sol",
  "abi": [
    {
      "inputs": [
        {
          "internalType": "string",
          "name": "languageCode",
          "type": "string"
        }
      ],
      "name": "addSupportedLanguage",
      "outputs": [],
      "stateMutability": "nonpayable",
      "type": "function"
    },
    {
      "inputs": [
        {
          "internalType": "string",
          "name": "languageCode",
          "type": "string"
        }
      ],
      "name": "isSupportedLanguage",
      "outputs": [
        {
          "internalType": "bool",
          "name": "",
          "type": "bool"
        }
      ],
      "stateMutability": "view",
      "type": "function"
    },
    {
      "inputs": [
        {
          "internalType": "string",
          "name": "",
          "type": "string"
        }
      ],
      "name": "languageCodes",
      "outputs": [
        {
          "internalType": "bool",
          "name": "",
          "type": "bool"
        }
      ],
      "stateMutability": "view",
      "type": "function"
    },
    {
      "inputs": [
        {
          "internalType": "string",
          "name": "languageCode",
          "type": "string"
        }
      ],
      "name": "removeSupportedLanguage",
      "outputs": [],
      "stateMutability": "nonpayable",
      "type": "function"
    }
  ],
  "bytecode": "0x6080604052348015600f57600080fd5b506102d08061001f6000396000f3fe608060405234801561001057600080fd5b506004361061004c5760003560e01c8063655c50e01461005157806366ac7d5e14610078578063a239346f1461008d578063b7737701146100bb575b600080fd5b61006461005f366004610147565b6100ce565b604051901515815260200160405180910390f35b61008b610086366004610147565b6100fc565b005b61006461009b3660046101d1565b805160208183018101805160008252928201919093012091525460ff1681565b61008b6100c9366004610147565b610134565b60008083836040516100e192919061028a565b9081526040519081900360200190205460ff16905092915050565b60016000838360405161011092919061028a565b908152604051908190036020019020805491151560ff199092169190911790555050565b600080838360405161011092919061028a565b6000806020838503121561015a57600080fd5b823567ffffffffffffffff81111561017157600080fd5b8301601f8101851361018257600080fd5b803567ffffffffffffffff81111561019957600080fd5b8560208284010111156101ab57600080fd5b6020919091019590945092505050565b634e487b7160e01b600052604160045260246000fd5b6000602082840312156101e357600080fd5b813567ffffffffffffffff8111156101fa57600080fd5b8201601f8101841361020b57600080fd5b803567ffffffffffffffff811115610225576102256101bb565b604051601f8201601f19908116603f0116810167ffffffffffffffff81118282101715610254576102546101bb565b60405281815282820160200186101561026c57600080fd5b81602084016020830137600091810160200191909152949350505050565b818382376000910190815291905056fea26469706673582212207d5403cc4125199b3376ecdf86b89fa7f4a98e7c8e9ff3c91821cbf1e9daa25b64736f6c634300081c0033",
  "linkReferences": {},
  "deployedLinkReferences": {}
}