{
  "_format": "hh-sol-artifact-1",
  "contractName": "Languages",
  "sourceName": "contracts/Languages.sol",
  "abi": [
    {
      "inputs": [],
      "stateMutability": "nonpayable",
      "type": "constructor"
    },
    {
      "anonymous": false,
      "inputs": [
        {
          "indexed": false,
          "internalType": "string",
          "name": "",
          "type": "string"
        }
      ],
      "name": "LanguageCodeAdded",
      "type": "event"
    },
    {
      "anonymous": false,
      "inputs": [
        {
          "indexed": false,
          "internalType": "string",
          "name": "",
          "type": "string"
        }
      ],
      "name": "LanguageCodeRemoved",
      "type": "event"
    },
    {
      "anonymous": false,
      "inputs": [
        {
          "indexed": false,
          "internalType": "address",
          "name": "",
          "type": "address"
        }
      ],
      "name": "OwnerUpdated",
      "type": "event"
    },
    {
      "inputs": [
        {
          "internalType": "string",
          "name": "languageCode",
          "type": "string"
        }
      ],
      "name": "addSupportedLanguage",
      "outputs": [],
      "stateMutability": "nonpayable",
      "type": "function"
    },
    {
      "inputs": [
        {
          "internalType": "string",
          "name": "languageCode",
          "type": "string"
        }
      ],
      "name": "isSupportedLanguage",
      "outputs": [
        {
          "internalType": "bool",
          "name": "",
          "type": "bool"
        }
      ],
      "stateMutability": "view",
      "type": "function"
    },
    {
      "inputs": [],
      "name": "owner",
      "outputs": [
        {
          "internalType": "address",
          "name": "",
          "type": "address"
        }
      ],
      "stateMutability": "view",
      "type": "function"
    },
    {
      "inputs": [
        {
          "internalType": "string",
          "name": "languageCode",
          "type": "string"
        }
      ],
      "name": "removeSupportedLanguage",
      "outputs": [],
      "stateMutability": "nonpayable",
      "type": "function"
    },
    {
      "inputs": [
        {
          "internalType": "address",
          "name": "owner_",
          "type": "address"
        }
      ],
      "name": "updateOwner",
      "outputs": [],
      "stateMutability": "nonpayable",
      "type": "function"
    }
  ],
  "bytecode": "0x6080604052348015600f57600080fd5b50600080546001600160a01b031916331790556104a6806100316000396000f3fe608060405234801561001057600080fd5b50600436106100575760003560e01c8063655c50e01461005c57806366ac7d5e14610084578063880cdc31146100995780638da5cb5b146100ac578063b7737701146100d7575b600080fd5b61006f61006a36600461038d565b6100ea565b60405190151581526020015b60405180910390f35b61009761009236600461038d565b610119565b005b6100976100a7366004610401565b6101f9565b6000546100bf906001600160a01b031681565b6040516001600160a01b03909116815260200161007b565b6100976100e536600461038d565b6102ba565b6000600183836040516100fe929190610431565b9081526040519081900360200190205460ff16905092915050565b6000546001600160a01b0316331461018a5760405162461bcd60e51b815260206004820152602960248201527f4f6e6c79207468652063757272656e74206f776e65722063616e206164642061604482015268206c616e677561676560b81b60648201526084015b60405180910390fd5b600180838360405161019d929190610431565b908152604051908190036020018120805492151560ff19909316929092179091557f4b2d80c160e1549f17427a391bef700094a21a5127e049cca43a6bb6916077a3906101ed9084908490610441565b60405180910390a15050565b6000546001600160a01b031633146102665760405162461bcd60e51b815260206004820152602a60248201527f4f6e6c79207468652063757272656e74206f776e65722063616e207365742061604482015269103732bb9037bbb732b960b11b6064820152608401610181565b600080546001600160a01b0319166001600160a01b0383169081179091556040519081527f4ffd725fc4a22075e9ec71c59edf9c38cdeb588a91b24fc5b61388c5be41282b9060200160405180910390a150565b6000546001600160a01b031633146103295760405162461bcd60e51b815260206004820152602c60248201527f4f6e6c79207468652063757272656e74206f776e65722063616e2072656d6f7660448201526b652061206c616e677561676560a01b6064820152608401610181565b60006001838360405161033d929190610431565b908152604051908190036020018120805492151560ff19909316929092179091557f46c668663309029d8cb32030ec6c19be9f2d2b1b25cbd59d53382c932c32c995906101ed9084908490610441565b600080602083850312156103a057600080fd5b823567ffffffffffffffff8111156103b757600080fd5b8301601f810185136103c857600080fd5b803567ffffffffffffffff8111156103df57600080fd5b8560208284010111156103f157600080fd5b6020919091019590945092505050565b60006020828403121561041357600080fd5b81356001600160a01b038116811461042a57600080fd5b9392505050565b8183823760009101908152919050565b60208152816020820152818360408301376000818301604090810191909152601f909201601f1916010191905056fea26469706673582212200ff8bf09e81d66e09ef5163f137da3c4aa4e530b2718e84d7cbf9fa1457e83e264736f6c634300081c0033",
  "linkReferences": {},
  "deployedLinkReferences": {}
}