{
  "_format": "hh-sol-artifact-1",
  "contractName": "Roles",
  "sourceName": "contracts/Roles.sol",
  "abi": [
    {
      "inputs": [
        {
          "internalType": "address",
          "name": "_elimuToken",
          "type": "address"
        },
        {
          "internalType": "address",
          "name": "_gElimuToken",
          "type": "address"
        }
      ],
      "stateMutability": "nonpayable",
      "type": "constructor"
    },
    {
      "inputs": [],
      "name": "elimuToken",
      "outputs": [
        {
          "internalType": "contract IERC20",
          "name": "",
          "type": "address"
        }
      ],
      "stateMutability": "view",
      "type": "function"
    },
    {
      "inputs": [],
      "name": "gElimuToken",
      "outputs": [
        {
          "internalType": "contract IERC20",
          "name": "",
          "type": "address"
        }
      ],
      "stateMutability": "view",
      "type": "function"
    },
    {
      "inputs": [
        {
          "internalType": "address",
          "name": "contributor",
          "type": "address"
        }
      ],
      "name": "getCombinedTokenBalance",
      "outputs": [
        {
          "internalType": "uint256",
          "name": "",
          "type": "uint256"
        }
      ],
      "stateMutability": "view",
      "type": "function"
    },
    {
      "inputs": [
        {
          "internalType": "address",
          "name": "contributor",
          "type": "address"
        }
      ],
      "name": "isDaoAdministrator",
      "outputs": [
        {
          "internalType": "bool",
          "name": "",
          "type": "bool"
        }
      ],
      "stateMutability": "view",
      "type": "function"
    },
    {
      "inputs": [
        {
          "internalType": "address",
          "name": "contributor",
          "type": "address"
        }
      ],
      "name": "isDaoOperator",
      "outputs": [
        {
          "internalType": "bool",
          "name": "",
          "type": "bool"
        }
      ],
      "stateMutability": "view",
      "type": "function"
    },
    {
      "inputs": [
        {
          "internalType": "address",
          "name": "contributor",
          "type": "address"
        }
      ],
      "name": "isDaoProposer",
      "outputs": [
        {
          "internalType": "bool",
          "name": "",
          "type": "bool"
        }
      ],
      "stateMutability": "view",
      "type": "function"
    }
  ],
  "bytecode": "0x6080604052348015600f57600080fd5b506040516103b73803806103b7833981016040819052602c916077565b600080546001600160a01b039384166001600160a01b0319918216179091556001805492909316911617905560a5565b80516001600160a01b0381168114607257600080fd5b919050565b60008060408385031215608957600080fd5b609083605c565b9150609c60208401605c565b90509250929050565b610303806100b46000396000f3fe608060405234801561001057600080fd5b50600436106100625760003560e01c80630a1f39f6146100675780630f2c0cbd1461009757806323472651146100ba5780634c50cd73146100cd5780634f320334146100ee5780637d001bbe14610101575b600080fd5b60005461007a906001600160a01b031681565b6040516001600160a01b0390911681526020015b60405180910390f35b6100aa6100a5366004610263565b610114565b604051901515815260200161008e565b60015461007a906001600160a01b031681565b6100e06100db366004610263565b610135565b60405190815260200161008e565b6100aa6100fc366004610263565b610222565b6100aa61010f366004610263565b610242565b60008061012083610135565b6a0333811ed0f53b76c0000011159392505050565b6001546040516370a0823160e01b81526001600160a01b03838116600483015260009216906370a0823190602401602060405180830381865afa158015610180573d6000803e3d6000fd5b505050506040513d601f19601f820116820180604052508101906101a49190610293565b6000546040516370a0823160e01b81526001600160a01b038581166004830152909116906370a0823190602401602060405180830381865afa1580156101ee573d6000803e3d6000fd5b505050506040513d601f19601f820116820180604052508101906102129190610293565b61021c91906102ac565b92915050565b60008061022e83610135565b6951f34fe1b21f8be0000011159392505050565b60008061024e83610135565b6a0199c08f687a9dbb60000011159392505050565b60006020828403121561027557600080fd5b81356001600160a01b038116811461028c57600080fd5b9392505050565b6000602082840312156102a557600080fd5b5051919050565b8082018082111561021c57634e487b7160e01b600052601160045260246000fdfea26469706673582212209a2fe491d98cbb2e6068eb468ab1f92e1dd11a02e0a7da2e69118e42cb077bc364736f6c634300081c0033",
  "linkReferences": {},
  "deployedLinkReferences": {}
}