{
  "_format": "hh-sol-artifact-1",
  "contractName": "Languages",
  "sourceName": "contracts/Languages.sol",
  "abi": [
    {
      "inputs": [],
      "stateMutability": "nonpayable",
      "type": "constructor"
    },
    {
      "inputs": [
        {
          "internalType": "address",
          "name": "owner",
          "type": "address"
        }
      ],
      "name": "OwnableInvalidOwner",
      "type": "error"
    },
    {
      "inputs": [
        {
          "internalType": "address",
          "name": "account",
          "type": "address"
        }
      ],
      "name": "OwnableUnauthorizedAccount",
      "type": "error"
    },
    {
      "anonymous": false,
      "inputs": [
        {
          "indexed": false,
          "internalType": "string",
          "name": "",
          "type": "string"
        }
      ],
      "name": "LanguageCodeAdded",
      "type": "event"
    },
    {
      "anonymous": false,
      "inputs": [
        {
          "indexed": false,
          "internalType": "string",
          "name": "",
          "type": "string"
        }
      ],
      "name": "LanguageCodeRemoved",
      "type": "event"
    },
    {
      "anonymous": false,
      "inputs": [
        {
          "indexed": true,
          "internalType": "address",
          "name": "previousOwner",
          "type": "address"
        },
        {
          "indexed": true,
          "internalType": "address",
          "name": "newOwner",
          "type": "address"
        }
      ],
      "name": "OwnershipTransferred",
      "type": "event"
    },
    {
      "inputs": [
        {
          "internalType": "string",
          "name": "languageCode",
          "type": "string"
        }
      ],
      "name": "addSupportedLanguage",
      "outputs": [],
      "stateMutability": "nonpayable",
      "type": "function"
    },
    {
      "inputs": [
        {
          "internalType": "string",
          "name": "languageCode",
          "type": "string"
        }
      ],
      "name": "isSupportedLanguage",
      "outputs": [
        {
          "internalType": "bool",
          "name": "",
          "type": "bool"
        }
      ],
      "stateMutability": "view",
      "type": "function"
    },
    {
      "inputs": [],
      "name": "owner",
      "outputs": [
        {
          "internalType": "address",
          "name": "",
          "type": "address"
        }
      ],
      "stateMutability": "view",
      "type": "function"
    },
    {
      "inputs": [
        {
          "internalType": "string",
          "name": "languageCode",
          "type": "string"
        }
      ],
      "name": "removeSupportedLanguage",
      "outputs": [],
      "stateMutability": "nonpayable",
      "type": "function"
    },
    {
      "inputs": [],
      "name": "renounceOwnership",
      "outputs": [],
      "stateMutability": "nonpayable",
      "type": "function"
    },
    {
      "inputs": [
        {
          "internalType": "address",
          "name": "newOwner",
          "type": "address"
        }
      ],
      "name": "transferOwnership",
      "outputs": [],
      "stateMutability": "nonpayable",
      "type": "function"
    }
  ],
  "bytecode": "0x6080604052348015600f57600080fd5b503380603557604051631e4fbdf760e01b81526000600482015260240160405180910390fd5b603c816041565b506091565b600080546001600160a01b038381166001600160a01b0319831681178455604051919092169283917f8be0079c531659141344cd1fd0a4f28419497f9722a3daafe3b4186f6b6457e09190a35050565b6103ec806100a06000396000f3fe608060405234801561001057600080fd5b50600436106100625760003560e01c8063655c50e01461006757806366ac7d5e1461008f578063715018a6146100a45780638da5cb5b146100ac578063b7737701146100c7578063f2fde38b146100da575b600080fd5b61007a6100753660046102d3565b6100ed565b60405190151581526020015b60405180910390f35b6100a261009d3660046102d3565b61011c565b005b6100a2610193565b6000546040516001600160a01b039091168152602001610086565b6100a26100d53660046102d3565b6101a7565b6100a26100e8366004610347565b610213565b600060018383604051610101929190610377565b9081526040519081900360200190205460ff16905092915050565b610124610256565b6001808383604051610137929190610377565b908152604051908190036020018120805492151560ff19909316929092179091557f4b2d80c160e1549f17427a391bef700094a21a5127e049cca43a6bb6916077a3906101879084908490610387565b60405180910390a15050565b61019b610256565b6101a56000610283565b565b6101af610256565b6000600183836040516101c3929190610377565b908152604051908190036020018120805492151560ff19909316929092179091557f46c668663309029d8cb32030ec6c19be9f2d2b1b25cbd59d53382c932c32c995906101879084908490610387565b61021b610256565b6001600160a01b03811661024a57604051631e4fbdf760e01b8152600060048201526024015b60405180910390fd5b61025381610283565b50565b6000546001600160a01b031633146101a55760405163118cdaa760e01b8152336004820152602401610241565b600080546001600160a01b038381166001600160a01b0319831681178455604051919092169283917f8be0079c531659141344cd1fd0a4f28419497f9722a3daafe3b4186f6b6457e09190a35050565b600080602083850312156102e657600080fd5b823567ffffffffffffffff8111156102fd57600080fd5b8301601f8101851361030e57600080fd5b803567ffffffffffffffff81111561032557600080fd5b85602082840101111561033757600080fd5b6020919091019590945092505050565b60006020828403121561035957600080fd5b81356001600160a01b038116811461037057600080fd5b9392505050565b8183823760009101908152919050565b60208152816020820152818360408301376000818301604090810191909152601f909201601f1916010191905056fea2646970667358221220ee957d693acc8cb41d9875cf5ff32286ddc6904bb46831dc123fd6333aa110b064736f6c634300081e0033",
  "linkReferences": {},
  "deployedLinkReferences": {}
}